:020000040000fa
:08000000ac3f04000000000009
:020000040000fa
:040008003a4c00006e
:020000040000fa
:04000c00fa4b0000ab
:020000040000fa
:040010001a4c000086
:020000040000fa
:04001400f84a0000a6
:020000040000fa
:040018005a4c00003e
:020000040000fa
:04001c00c0530000cd
:020000040000fa
:040020000a3600009c
:020000040000fa
:04002400c0530000c5
:020000040000fa
:04002800c0530000c1
:020000040000fa
:04002c00c0530000bd
:020000040000fa
:04003000c0530000b9
:020000040000fa
:04003400c0530000b5
:020000040000fa
:04003800c0530000b1
:020000040000fa
:04003c00c0530000ad
:020000040000fa
:04004000c0530000a9
:020000040000fa
:04004400c0530000a5
:020000040000fa
:04004800c0530000a1
:020000040000fa
:04004c00c05300009d
:020000040000fa
:04005000c053000099
:020000040000fa
:04005400c053000095
:020000040000fa
:04005800c053000091
:020000040000fa
:04005c00c05300008d
:020000040000fa
:04006000c053000089
:020000040000fa
:04006400c053000085
:020000040000fa
:04006800c053000081
:020000040000fa
:04006c00c05300007d
:020000040000fa
:04007000c053000079
:020000040000fa
:04007400c053000075
:020000040000fa
:04007800c053000071
:020000040000fa
:04007c00c05300006d
:020000040000fa
:04008000c053000069
:020000040000fa
:04008400c053000065
:020000040000fa
:04008800c053000061
:020000040000fa
:04008c008a450000a1
:020000040000fa
:04009000c053000059
:020000040000fa
:04009400c053000055
:020000040000fa
:04009800c053000051
:020000040000fa
:04009c00c05300004d
:020000040000fa
:0400a000c053000049
:020000040000fa
:0400a400c053000045
:020000040000fa
:0400a800c053000041
:020000040000fa
:0400ac00c05300003d
:020000040000fa
:0400b000c053000039
:020000040000fa
:0400b400c053000035
:020000040000fa
:0400b800c053000031
:020000040000fa
:0400bc00c05300002d
:020000040000fa
:0400c000c053000029
:020000040000fa
:0400c400c053000025
:020000040000fa
:0400c800c053000021
:020000040000fa
:0400cc00c05300001d
:020000040000fa
:0400d000c053000019
:020000040000fa
:0400d400c053000015
:020000040000fa
:0400d800c053000011
:020000040000fa
:0400dc004a4900008d
:020000040000fa
:0400e000c053000009
:020000040000fa
:0400e400c053000005
:020000040000fa
:0400e800c053000001
:020000040000fa
:0400ec00c0530000fd
:020000040000fa
:0400f000c0530000f9
:020000040000fa
:0400f400c0530000f5
:020000040000fa
:0400f800c0530000f1
:020000040000fa
:0400fc00c0530000ed
:020000040000fa
:04010000c0530000e8
:020000040000fa
:04010400c0530000e4
:020000040000fa
:04010800c0530000e0
:020000040000fa
:04010c00c0530000dc
:020000040000fa
:04011000c0530000d8
:020000040000fa
:04011400c0530000d4
:020000040000fa
:04011800c0530000d0
:020000040000fa
:04011c00c0530000cc
:020000040000fa
:04012000c0530000c8
:020000040000fa
:04012400c0530000c4
:020000040000fa
:04012800c0530000c0
:020000040000fa
:04012c00c0530000bc
:020000040000fa
:04013000c0530000b8
:020000040000fa
:04013400c0530000b4
:020000040000fa
:04013800c0530000b0
:020000040000fa
:04013c00c0530000ac
:020000040000fa
:04014000c0530000a8
:020000040000fa
:04014400c0530000a4
:020000040000fa
:04014800c0530000a0
:020000040000fa
:04014c00c05300009c
:020000040000fa
:04015000c053000098
:020000040000fa
:04015400c053000094
:020000040000fa
:04015800c053000090
:020000040000fa
:04015c00c05300008c
:020000040000fa
:04016000c053000088
:020000040000fa
:04016400c053000084
:020000040000fa
:04016800c053000080
:020000040000fa
:04016c00c05300007c
:020000040000fa
:04017000c053000078
:020000040000fa
:04017400c053000074
:020000040000fa
:04017800c053000070
:020000040000fa
:04017c00c05300006c
:020000040000fa
:04018000c053000068
:020000040000fa
:04018400c053000064
:020000040000fa
:04018800c053000060
:020000040000fa
:04018c00c05300005c
:020000040000fa
:04019000c053000058
:020000040000fa
:04019400c053000054
:020000040000fa
:04019800c053000050
:020000040000fa
:04019c00c05300004c
:020000040000fa
:0401a000c053000048
:020000040000fa
:0401a400c053000044
:020000040000fa
:0401a800c053000040
:020000040000fa
:0401ac00c05300003c
:020000040000fa
:0401b000c053000038
:020000040000fa
:0401b400c053000034
:020000040000fa
:0401b800c053000030
:020000040000fa
:0401bc00c05300002c
:020000040000fa
:0401c000c053000028
:020000040000fa
:0401c400c053000024
:020000040000fa
:0401c800c053000020
:020000040000fa
:0401cc00c05300001c
:020000040000fa
:0401d000c053000018
:020000040000fa
:0401d400c053000014
:020000040000fa
:0401d800c053000010
:020000040000fa
:0401dc00c05300000c
:020000040000fa
:0401e000c053000008
:020000040000fa
:0401e400c053000004
:020000040000fa
:0401e800c053000000
:020000040000fa
:0401ec00c0530000fc
:020000040000fa
:0401f000c0530000f8
:020000040000fa
:0401f400c0530000f4
:020000040000fa
:0401f800c0530000f0
:020000040000fa
:0401fc00c0530000ec
:020000040000fa
:04020000c0530000e7
:020000040000fa
:04020400c0530000e3
:020000040000fa
:04020800c0530000df
:020000040000fa
:04020c00c0530000db
:020000040000fa
:04021000c0530000d7
:020000040000fa
:04021400c0530000d3
:020000040000fa
:04021800c0530000cf
:020000040000fa
:04021c00c0530000cb
:020000040000fa
:04022000c0530000c7
:020000040000fa
:04022400c0530000c3
:020000040000fa
:04022800c0530000bf
:020000040000fa
:04022c00c0530000bb
:020000040000fa
:04023000c0530000b7
:020000040000fa
:04023400c0530000b3
:020000040000fa
:04023800c0530000af
:020000040000fa
:04023c00c0530000ab
:020000040000fa
:04024000c0530000a7
:020000040000fa
:04024400c0530000a3
:020000040000fa
:04024800c05300009f
:020000040000fa
:04024c00c05300009b
:020000040000fa
:04025000c053000097
:020000040000fa
:04025400c053000093
:020000040000fa
:04025800c05300008f
:020000040000fa
:04025c00c05300008b
:020000040000fa
:04026000c053000087
:020000040000fa
:04026400c053000083
:020000040000fa
:04026800c05300007f
:020000040000fa
:04026c00c05300007b
:020000040000fa
:04027000c053000077
:020000040000fa
:04027400c053000073
:020000040000fa
:04027800c05300006f
:020000040000fa
:04027c00c05300006b
:020000040000fa
:04028000c053000067
:020000040000fa
:04028400c053000063
:020000040000fa
:04028800c05300005f
:020000040000fa
:04028c00c05300005b
:020000040000fa
:04029000c053000057
:020000040000fa
:04029400c053000053
:020000040000fa
:04029800c05300004f
:020000040000fa
:04029c00c05300004b
:020000040000fa
:0402a000c053000047
:020000040000fa
:0402a400c053000043
:020000040000fa
:0402a800c05300003f
:020000040000fa
:0402ac00c05300003b
:020000040000fa
:0402b000c053000037
:020000040000fa
:0402b400c053000033
:020000040000fa
:0402b800c05300002f
:020000040000fa
:0402bc00c05300002b
:020000040000fa
:0402c000c053000027
:020000040000fa
:0402c400c053000023
:020000040000fa
:0402c800c05300001f
:020000040000fa
:0402cc00c05300001b
:020000040000fa
:0402d000c053000017
:020000040000fa
:0402d400c053000013
:020000040000fa
:0402d800c05300000f
:020000040000fa
:0402dc00c05300000b
:020000040000fa
:0402e000c053000007
:020000040000fa
:0402e400c053000003
:020000040000fa
:0402e800c0530000ff
:020000040000fa
:0402ec00c0530000fb
:020000040000fa
:0402f000c0530000f7
:020000040000fa
:0402f400c0530000f3
:020000040000fa
:0402f800c0530000ef
:020000040000fa
:0402fc00c0530000eb
:020000040000fa
:04030000bc490000f4
:020000040000fa
:04030400c0530000e2
:020000040000fa
:04030800c0530000de
:020000040000fa
:04030c00c0530000da
:020000040000fa
:04031000c0530000d6
:020000040000fa
:04031400c0530000d2
:020000040000fa
:04031800c0530000ce
:020000040000fa
:04031c00c0530000ca
:020000040000fa
:04032000c0530000c6
:020000040000fa
:04032400c0530000c2
:020000040000fa
:04032800c0530000be
:020000040000fa
:04032c00c0530000ba
:020000040000fa
:04033000c0530000b6
:020000040000fa
:04033400c0530000b2
:020000040000fa
:1004000067e60000096a000085ae000067bb0000d7
:1004100072f300006e3c00003af500004fa50000aa
:100420007f5200000e5100008c680000059b000008
:10043000abd90000831f000019cd0000e05b000075
:10044000982f00008a42000091440000377100009c
:10045000cffb0000c0b50000a5db0000b5e900003f
:100460005bc2000056390000f1110000f159000094
:10047000a48200003f920000d55e00001cab00008b
:1004800098aa000007d80000015b0000831200005a
:10049000be85000031240000c37d00000c55000023
:1004a000745d0000be720000feb10000de8000003e
:1004b000a7060000dc9b000074f100009bc1000057
:1004c000c16900009be4000086470000beef000009
:1004d000c69d0000c10f0000cca100000c2400004c
:1004e0006f2c0000e92d0000aa840000744a00006f
:1004f000dca90000b05c0000da880000f97600009a
:10050000525100003e9800006dc6000031a8000066
:10051000c827000003b00000c77f000059bf0000db
:10052000f30b0000e0c6000047910000a7d50000d3
:1005300051630000ca06000067290000291400006a
:10054000850a0000b7270000382100001b2e00009c
:10055000fc6d00002c4d0000130d0000385300000e
:10056000547300000a650000bb0a00006a760000b0
:100570002ec90000c2810000852c0000729200008c
:10058000a1e80000bfa200004b6600001aa800000e
:10059000708b00004bc20000a35100006cc700002c
:1005a00019e8000092d100002406000099d600004e
:1005b000853500000ef4000070a000006a100000f5
:1005c00016c10000a4190000086c0000371e0000ce
:1005d0004c77000048270000b5bc0000b034000094
:1005e000b30c00001c3900004aaa0000d84e0000dd
:1005f0004fca00009c5b0000f36f00002e680000f3
:10060000ee8200008f7400006f630000a578000088
:1006100014780000c884000008020000c78c0000a5
:10062000faff0000be900000eb6c000050a4000038
:10063000f7a30000f9be0000f278000071c60000c8
:100640006e3e0000cbe2000091490000f7c10000bf
:1006500084490000ed29000008e20000d4060000f3
:100660001a9c000045bc00004ad90000fbb60000ff
:10067000fe41000097980000bd090000adf80000a1
:10068000d7830000e3d900007b4d0000b7ce000007
:100690003c900000e7b200000dc900005e4500007c
:1006a000235f0000c55f0000cfec0000d010000009
:1006b000e685000084210000cfe90000e73c00004f
:1006c00000780000000000001e460000ae3c000064
:1006d0008e3900007c52000034520000b44e0000fd
:1006e000be2b0000f64c0000fc4e0000144f000032
:1006f000de4d0000ac280000562c0000cc4e00005f
:10070000e44e0000c24d00002c220000144d0000f9
:100710004e510000605100007251000084510000f1
:1007200096510000a8510000ba5100001e2f000091
:10073000000100000203000004050000060700009d
:10074000080c0000101400001820000030400000c9
:100750000b08000000000000000000000000000086
:100760000000000000010000007000000000000018
:10077000feaf0000050000000900000000000000be
:100780000000000000000000000000000001000068
:10079000f64f00002c4f00007c530000f842000090
:1007a00022300000a23000007a330000244900000b
:1007b000225000000c50000038500000cc500000c7
:1007c0003100000021010000bc4500004e46000041
:1007d0001853000024530000e44700007049000053
:1007e00096490000504d0000f0510000000000004c
:1007f00000010000020300000405000006070000dd
:10080000080c000010140000182000003040000008
:100810000100000004110000334300000407000041
:10082000c4400000007000000000000000b00000a4
:080830000500000008000000b3
:020000040000fa
:100838008001fa00889fbe008a9fbe008c9fbe0080
:10084800402799005127990062279900732799003a
:100858000000eb00000f78006000b8001007980057
:10086800210798006000b800100798002107980039
:10087800f70137001e009000c600dd005e209100e1
:1008880001004000500798000000eb00000f7800be
:10089800380037009e007800638140009e00780091
:1008a8005e00900001004000904078008002200027
:1008b80002004000017778001e81e8001e007800e1
:1008c8008000e8005e009000010040009040780041
:1008d8008002200002004000017778001e01e80035
:1008e8001e0078008080e8005e0090000100400053
:1008f80090407800800220000200400001777800d4
:100908001e007800e30040005e00900001004000f7
:1009180090407800820220001e0041000177780094
:100928001e0078000000e00001003d006300400068
:100938004280de00800078001e0078000000e000a1
:1009480001003d00630040004280de004200dd00ff
:100958008002b000000047001001be004208dd0020
:100968008002b000000047000288be009e017800a7
:10097800648f4100f10320001e007800810f5000b1
:10098800c4ff340000012000010020003007980057
:10099800410798007d0037003e009000ce0090008f
:1009a8006f005000e08058004200dd008002b00077
:1009b800000047001002be00640798007507980001
:1009c8006e009000c900dd007e0090004700de0048
:1009d800810470007e009000c900dd006e00900068
:1009e8004700de00010470006e009000c200de00c7
:1009f8007e0090004e00dd00810570007e009000b2
:100a0800c200de006e0090004e00dd00010570009f
:100a18000a016c008b816c006e009000fe00900053
:100a2800cd0add004300de0000807200c308de004e
:100a38000000690081806900000f9800110f98007c
:100a48003e009000ce00900062005000e080580008
:100a58004200dd008002b000000047001003be0025
:100a680066079800770798006e0090008000d10014
:100a78007e0090004f00dd00810670007e0090002f
:100a88008000d1006e0090004f00dd00010670006c
:100a98006e009000c300de007e0090004d00dd0077
:100aa80001007000102f99007e009000c300de0046
:100ab8006e0090004d00dd0001007000002f9900cd
:100ac8000e2a91009e2a910004016e0085816e0015
:100ad8006e009000fe009000c60add004a00de00ad
:100ae80000807200ca08de00000069008180690089
:100af800200f9800310f98003e009000ce00900023
:100b080070005000e08058004200dd008002b00014
:100b1800000047001001be000e0890009e089000db
:100b280002014000838148003e009000ce00900002
:100b380067005000e08058004200dd008002b000ed
:100b4800000047001000be000201400083814800f9
:100b58002e089000be0890000201400083814800e2
:100b68003e0090004200dd008002b0000000470017
:100b78000288be003e009000ce0090006100400058
:100b8800e080480030079800410798003e01900037
:100b9800ce019000f003200001002000800f5100da
:100ba800818f59007cff36000000eb00000f7800b1
:100bb8000c003700ce209100260220001e004300c2
:100bc8004200dd00008040001001be001e007800d9
:100bd8004200dd008012b000000047000288be001d
:100be8001e0fe8001e007800e70f5000f1ff3400e8
:100bf8000000eb00000f7800f10037004e10910064
:100c0800de109100ce01dd004209de000301710013
:100c1800322f99004e09dd004200de00020070000c
:100c2800202f99004e109100de109100c301dd00c5
:100c38004d09de0003017100522f99004309dd00c0
:100c48004d00de0002007000402f99002e2991000f
:100c5800be2991004e2b9100de2b910006026900ff
:100c6800878269004e109100de109100c601de00f7
:100c78004a09dd0003017100722f99004609de0060
:100c88004a00dd0002007000602f99006e29910073
:100c9800fe29910002006a0083806a00000f980014
:100ca800110f98004e109100de1091006e11910006
:100cb800fe1191008002780001027800820078001d
:100cc800030078008180620000006200703799009c
:100cd800613799006e339100fe3391004e109100f8
:100ce800de1091000e1991009e1991008002780083
:100cf8000102780082007800030078008180620099
:100d080000006200103f9900013f99000e389100e1
:100d18009e38910000036b0081836b006e10910078
:100d2800fe1091000e1991009e1991008002780022
:100d38000102780082007800030078008180620058
:100d480000006200303f9900213f99002e38910041
:100d5800be38910000006b0081806b00400f980046
:100d6800510f98000e0990009e0990004e089000bf
:100d7800de0890000200400083804800600f980061
:100d8800710f98004e189100de189100ca01dd001d
:100d98004609de0003017100123799004a09dd0097
:100da8004600de0002007000003799004e189100de
:100db800de189100c501dd004b09de00030171005a
:100dc800323799004509dd004b00de000200700053
:100dd800203799000e3391009e3391002e319100f7
:100de800be31910002026b0083826b004e189100a5
:100df800de189100c901de004709dd00030171001a
:100e0800523799004909de004700dd0002007000f2
:100e1800403799004e339100de33910006006a0096
:100e280087806a00200f9800310f98004e189100b3
:100e3800de1891006e199100fe1991008002780069
:100e48000102780082007800030078008180620047
:100e580000006200503f9900413f99004e3b9100cd
:100e6800de3b91004e189100de1891000080ea00e8
:100e78008180ea000e2191009e2191008002780075
:100e88000102780082007800030078008180620007
:100e980000006200703f9900613f99006e38910030
:100ea800fe38910000006b0081806b0000179800ed
:100eb800111798002e219100be2191002e08900054
:100ec800be08900002014000838148000e10900087
:100ed8009e10900002014000838148001e007800a7
:100ee800c200dd0000222800008040001000be0083
:100ef80002014000838148001e0078004200dd00a6
:100f08008002b000000047001000be000200400050
:100f18008380480020179800311798000e20910010
:100f28009e20910020279900312799006e18910082
:100f3800fe18910000279900112799004e1891007a
:100f4800de189100601f9900711f99002e199100f9
:100f5800be1991002e109000be10900002004000b3
:100f680083804800401f9900511f99000e18910076
:100f78009e189100201f9900311f99006e10910052
:100f8800fe109100001f9900111f99004e1091004a
:100f9800de10910060179900711799002e119000ca
:100fa800be1190006e089000fe08900002004000fc
:100fb8008380480040179900511799001e0fe800d8
:100fc800f10320001e007800810f50000bff340051
:100fd8000000eb00000f780014003700ce209100cd
:100fe800270220001e8043004200dd0000804000f0
:100ff8001001be001e0078004200dd008012b00023
:10100800000047001000be00020140008381480034
:10101800ce209100240220001e0042004200dd0084
:10102800008040000288be001e0fe8001e00780005
:10103800e70f5000e9ff34001e009000ae0090005a
:1010480061004000e08048001007980021079800e0
:101058001e019000ae0190006e209100fe209100cc
:10106800800f5100818f590002fe39004f06be00e3
:101078004f05be004f04be000080fa0000000600c5
:020000040000fa
:10108800982f00008a420000914400003771000048
:10109800cffb0000c0b50000a5db0000b5e90000eb
:1010a8005bc2000056390000f1110000f159000040
:1010b800a48200003f920000d55e00001cab000037
:1010c80098aa000007d80000015b00008312000006
:1010d800be85000031240000c37d00000c550000cf
:1010e800745d0000be720000feb10000de800000ea
:1010f800a7060000dc9b000074f100009bc1000003
:10110800c16900009be4000086470000beef0000b4
:10111800c69d0000c10f0000cca100000c240000f7
:101128006f2c0000e92d0000aa840000744a00001a
:10113800dca90000b05c0000da880000f976000045
:10114800525100003e9800006dc6000031a8000012
:10115800c827000003b00000c77f000059bf000087
:10116800f30b0000e0c6000047910000a7d500007f
:1011780051630000ca060000672900002914000016
:10118800850a0000b7270000382100001b2e000048
:10119800fc6d00002c4d0000130d000038530000ba
:1011a800547300000a650000bb0a00006a7600005c
:1011b8002ec90000c2810000852c00007292000038
:1011c800a1e80000bfa200004b6600001aa80000ba
:1011d800708b00004bc20000a35100006cc70000d8
:1011e80019e8000092d100002406000099d60000fa
:1011f800853500000ef4000070a000006a100000a1
:1012080016c10000a4190000086c0000371e000079
:101218004c77000048270000b5bc0000b03400003f
:10122800b30c00001c3900004aaa0000d84e000088
:101238004fca00009c5b0000f36f00002e6800009e
:10124800ee8200008f7400006f630000a578000034
:1012580014780000c884000008020000c78c000051
:10126800faff0000be900000eb6c000050a40000e4
:10127800f7a30000f9be0000f278000071c6000074
:1012880067e60000096a000085ae000067bb000041
:1012980072f300006e3c00003af500004fa5000014
:1012a8007f5200000e5100008c680000059b000072
:1012b800abd90000831f000019cd0000e05b0000df
:1012c8005400f8000000210001102000a10288004d
:1012d80041842000020820003118ba000201e90008
:1012e800fdff3a002020210001102000a102880003
:1012f80041942000020120003118ba000201e900df
:10130800fdff3a005400f90000000600889fbe0067
:101318008a9fbe008c9fbe00001021000005780047
:10132800800078000401200031017800b1017800c4
:101338000280fd000380fd00031878000218780081
:101348000402e900f8ff3a0000047800fc045000a9
:101358000b0320002424210028a09700b8a09700a0
:101368004701de00c909dd00031a7100c709de0064
:101378004901dd00029271004e01dd00c209de0064
:1013880014016900029a6900ce09dd004201de00fd
:1013980094816900031269004301de00cd09dd0074
:1013a8003401690002806900c309de00a480690075
:1013b80039004000b98048003a1a40003a9a48007b
:1013c80048b89700d8b897004f01dd00c109de0082
:1013d800031a7100cf09dd004101de00029271009d
:1013e8004d01dd00c309de0014016900029a69009d
:1013f800cd09dd004301de00948169000312690014
:101408004a01de00c609dd00340069000080690079
:10141800ca09de00a480690064025200341c40003e
:10142800249c48008b05e900cbff3a0000102100fe
:10143800009088002020210025222100662221001a
:10144800a7222100e8222100292321006a23210064
:10145800ab232100ec2321000d002100b01a7800f5
:10146800b0127800301b780030137800b01b780079
:10147800b0137800301c780030147800b01c780065
:10148800b0147800301d780030157800b01d780051
:10149800b0157800301e78003016780035007800d6
:1014a800a50078004201de00ce09dd00031a7100b4
:1014b8004209de00ce01dd00031271004d01de009d
:1014c800c309dd0014016900029a6900cd09de0034
:1014d8004301dd0094816900031269004a01dd00bf
:1014e800c609de0014016900029a6900ca09dd0014
:1014f8004601de0094816900031269003701780013
:1015080080016100160161003600600000806900fa
:1015180002006800141a4000270178008101610068
:1015280016016100a68060008180690082806800e1
:10153800149a480039007800a90078004601de00b6
:10154800ca09dd00031a7100c609de004a01dd0080
:10155800029271004b01de00c509dd00140169002b
:10156800029a6900cb09de004501dd00948169001b
:10157800031269004701dd00c909de001401690092
:10158800029a6900c709dd004901de0094816900fb
:10159800031269000081ea003b016100ba016000a2
:1015a80082816900348041008181ea00ab81610059
:1015b8002a8160000301690003908000a4004900ab
:1015c8006402520033004000b38048000390880052
:1015d8003c004000ac8048003d004000bd80480011
:1015e8000c0178000b0678008a057800181c40006a
:1015f80009057800189448008804780007047800e2
:1016080086037800050378003419400024914800c7
:10161800820278000d80a600a0ff37003500780010
:101628000232b4003500780004b2b4003500780006
:101638000632b4003500780008b2b40035007800ee
:101648000a32b400350078000cb2b40035007800d6
:101658000e32b4003500780010b2b40035007800be
:101668001232b4003500780014b2b40035007800a6
:101678001632b4003500780018b2b400350078008e
:101688001a32b400350078001cb2b4003500780076
:101698001e32b4003500780020b2b4004f06be00f8
:1016a8004f05be004f04be000000060021202100a7
:1016b8008400200031017800b10178000280fd002b
:1016c8000380fd00035878000380fd00035878006c
:1016d800025878000280fd00025878000402e900f0
:0816e800f4ff3a0000000600c7
:020000040000fa
:1016f0002600fa00400f9800510f9800620f9800e2
:10170000730f980004179800161798002717980071
:101710006e099000fe0990004e089000de089000cf
:10172000000051008180590062004000e0804800c4
:10173000000040008180480070079800010f980069
:101740004e099000de099000028fbe0000042000c8
:10175000100f98001e0890008000eb000001be00f2
:101760007e0090008e0890007220070060079800ad
:10177000d5fe07001e119000ae119000c2938800a4
:10178000d39388003eb99700ceb99700e2938800c2
:10179000f3938800740037001e00be004103070069
:1017a00000888800118888002200200003002000a3
:1017b0003e004100ae8049003a03070020888800bf
:1017c0003188880042002000030020003e004100d4
:1017d000ae804900330307004088880051888800a4
:1017e00062002000030020003e004100ae8049005e
:1017f0002c03070060888800718888008200200020
:10180000030020003e004100ae8049002503070090
:101810008088880091888800a200200003002000b2
:101820003e004100ae8049001e030700a0888800ea
:10183000b1888800c2002000030020003e00410063
:10184000ae80490017030700c0888800d18888004f
:10185000e2002000030020003e004100ae8049006d
:1018600010030700e0888800f1888800020120004a
:10187000030020003e004100ae804900090307003c
:1018800000898800118988002201200003002000bf
:101890003e004100ae804900020307002089880015
:1018a0003189880042012000030020003e004100f1
:1018b000ae804900fb0207004089880051898800fa
:1018c00062012000030020003e004100ae8049007c
:1018d000f402070060898800718988008201200075
:1018e000030020003e004100ae804900ed020700e9
:1018f0008089880091898800a201200003002000cf
:101900003e004100ae804900e6020700a089880041
:10191000b1898800c2012000030020003e00410080
:10192000ae804900df020700c0898800d1898800a5
:10193000e2012000030020003e004100ae8049008b
:10194000d8020700e0898800f18988001e00be00e7
:10195000e919070002022000030020001e0f4100c9
:101960005e9749006bfe07006e00900000f0a70034
:101970000000ea000000ea004f00de0000407800ae
:10198000ee0090008100e900610798000004e0008b
:1019900081ff3a006000b8002007980031079800e6
:1019a0001e01be00220f9800330f9800110037006f
:1019b0001e00be00bb0207002e019000c211dd0018
:1019c00002102100028141000089be002e0090001b
:1019d000be00900061004000e080480020079800b1
:1019e0003107980022002000030020001e0f410054
:1019f0005e9749006e089000fe0890001e01be0030
:101a0000800f5100818f5900e9ff36002e089000a9
:101a1000be089000b8190700011021007e01900057
:101a2000f0032000000061000080400040079800a3
:101a30004e00900001c8b300014878004e009000ad
:101a40000000e80040079800001021008003b0006b
:101a500050079800ce0090005e009000808f5000ec
:101a6000140036005e0090006800400050079800a7
:101a7000060037004e0090008040eb0001487800df
:101a80004e0090000000e80040079800ce00900053
:101a90005e009000808f5000f6ff39001dfe0700a9
:101aa00000102100400798005e0090006800500080
:101ab000500798005e0090006300400050079800b7
:101ac000060037004e0090008040eb00014878008f
:101ad0004e0090000000e80040079800ce00900003
:101ae0005e009000808f5000f6ff39007e0090006d
:101af0008e0890004d08de00804078004e00900077
:101b0000014878004e0090000000e800400798006f
:101b10007e0090008e0890004508de00804078002e
:101b20004e009000014878004e0090000000e80050
:101b3000400798007e0090008e089000c309dd00e9
:101b40004d00de0000807100cd08de00804078008e
:101b50004e009000014878004e0090000000e80020
:101b6000400798007e0090008e0890004b09dd0031
:101b70004500de0000007100c508de0080407800ee
:101b80004e009000014878004e0090000000e800f0
:101b9000400798007e00900000407800c300dd0000
:101ba0004e009000014878004e0090000000e800d0
:101bb00040079800d7fd07000e109000bdfe0700fb
:081bc0000080fa00000006009d
:020000040000fa
:101bc8001000fa0050079800610798007207980003
:101bd8000000eb00000f78000000eb0010079800f1
:101be8000000eb00400798005e0090000000e00055
:101bf800030032006e0090000000e00004003a008c
:101c080020fe2f00a9220700000f78000a003700e5
:101c1800a2170700100798001e0090000000e000bf
:101c2800020032000000eb0001003700b0ff2f0077
:101c38009e220700000f78001e0090000000e000c0
:101c4800f90032000000eb00300798001e009000f9
:101c580061c1b300314098001e00900021c0b3005c
:101c6800414098007e0090000000e000060032002d
:101c78001e00900040409000804078000174a00051
:101c88001e009000414098007e0090004801dd0051
:101c9800c800de00810071001e009000f20f2000d5
:101ca80002816000d0419000e0c1610002c1710072
:101cb80052409800c808de00604190006041610011
:101cc80081407100614098005e009000000890001b
:101cd8004801dd00c800de00810071001e00900090
:101ce800f20f200002816000f0419000e0c1610025
:101cf80002c1710072409800c808de0000499000d7
:101d08006041610081407100014898006e009000b8
:101d1800e30040001e009000690140003e00900072
:101d28000000410062002000142207003e009000dd
:101d380066004000300798006e00900090409000c8
:101d48008180fb00204090000080fb004800dd00ff
:101d580000807000c800dd004800de00010070004f
:101d6800200798005e0090007000900061006000fd
:101d7800004078000004e000050032005e0090009a
:101d8800700090008000e8005e00900071009800ec
:101d98005e00900040489000e24f50002f003a004b
:101da80000022000400798004e009000a10f20007c
:101db800808050002e009000808f50000400310079
:101dc800d0fe2f0039220700000f780025003700c9
:101dd8002e0090006a005000200798006e009000c6
:101de800e90040001e009000690140003e0090009c
:101df800000041002e019000e02107002e00900015
:101e08008080ea003e009000808f50000400360079
:101e1800be0090002e00900000804000300798001f
:101e28001e009000e90040003e00900080804000c5
:101e38001e00900069004000680147000202780017
:101e4800810178003e019000800078005e009000db
:101e580003130700000f78000200370000fe2f0070
:101e6800000f7800ce0090003e00900000804000f7
:101e78006a004000200798002e0090004801dd000d
:101e8800c800de00810071001e009000f20f2000e3
:101e98000281600090419000e0c1610002c17100c0
:101ea80012409800c808de0020419000604161009f
:101eb80081407100214098001e0078000000e00079
:101ec80004003a00de0090001e0090001e1a070071
:101ed800000f78001e0078000000e00032003a0091
:101ee8001e0090009080fb00104090000080fb00d6
:101ef8004800dd0000807000c800dd004800de00fa
:101f08000080700065005000200798001e009000b7
:101f1800a04090006e009000214098005e00900064
:101f280040489000e24f50001d003a000002200097
:101f3800400798004e009000ae00900000805000ce
:101f4800200798001e009000e30040006e009000fb
:101f5800630040002e019000882107006e00900069
:101f6800e30040002e009000008140002e00900009
:101f78008000e8006e0090000080e800e80147005b
:101f8800030278008201780001017800800078005f
:101f98005e009000b2120700000f780002003700c0
:101fa80000fe2f00000f78001e0078000000e000ff
:101fb8001b003a005e00900040489000e34f50003c
:101fc8000f0032004e0190006e009000e3004000c8
:101fd8002e009000808040001e009000e301400029
:101fe8002e009000008041001c1f07000000e00048
:101ff8000300320020fd2f00000f78000800370092
:102008002e00900065004000c800dd004800de009a
:1020180000807000ee009000f0000a00110000003f
:102028001e009000011a07001e0078000080fa00c8
:04203800000006009e
:020000040000fa
:10203c001400fa00000f9800110f98000e08900081
:10204c00904090008180fb00204090000080fb00bd
:10205c004800dd0000807000c800dd004800de0094
:10206c0000807000600798001e0890000a1a070094
:10207c00704798000040eb0060479800100020006b
:10208c000100200040079800510798000e089000ae
:10209c0030409000f24f50000c0032000e089000bf
:1020ac0030409000f64f50000d003a000e089000a2
:1020bc0040409000e24f500009003a000e0890009a
:1020cc0010489000f24f500005003a0000e2240046
:1020dc000100200010079800210798000400370029
:1020ec00204e2000010020001007980021079800c6
:1020fc001e0890003f150700000f78001e007800a6
:10210c000000e000040032001e0078006621070089
:10211c00000f7800ba0037000e0890008040eb00ea
:10212c00014878006e009000e10f4000030032007f
:10213c006e0090000000e80060079800ee00900030
:10214c000e0890008101780000017800fe4090009c
:10215c001e0890009c11070053210700000f780007
:10216c001e0078000000e000a4003a004e00900031
:10217c00de0090008c1d07000e089000304090008f
:10218c00e34f500003003a001e0078004621070080
:10219c009b0037000e08900030409000f64f500026
:1021ac000b003a000e08900040409000e24f5000a7
:1021bc00050032000e089000c040900020c8b3000b
:1021cc0080cf500002003a0010c0b3006047980066
:1021dc006e0047000001780001c3b3001e08900098
:1021ec00ed160700000f78001e0078000000e000dc
:1021fc0031003a006e4890000080fb0070006000d7
:10220c000000e0002c0032006e4890000080fb00c3
:10221c0066006000e60f50002700320052002000dc
:10222c008000eb000e089000ed080700b0102000b5
:10223c00600798001e089000cb1807000004e0000f
:10224c00090032008e0890001e0890006c014700b7
:10225c00820178000101780001c1b30084180700e5
:10226c00000f7800080037000e089000ec004700c3
:10227c008101780000017800fe4090001e0890005b
:10228c0040050700000f78001e0078000000e000f9
:10229c0009003a006e4090000004e0001900320082
:1022ac001e089000700090008000e8001e0890004e
:1022bc00710098001400370020002000010020005d
:1022cc00391d070012c0b3001e009000ae00900034
:1022dc00e00f5000e08f580001003c000041eb0083
:1022ec001e009000ae00900061005000e08058008d
:1022fc0010079800210798000204e000b4ff3a0090
:10230c0001003700000000001e009000ae0090009d
:10231c00e00f5000e08f580004003c00b0fe2f008e
:10232c00e1200700000f7800350037001e00780010
:10233c000000e000030032001e007800da200700e5
:10234c002f0037006e009000e40f500009003e0093
:10235c006e0090000000e0000300320060fe2f00d1
:10236c00000f78002600370070fe2f00000f780059
:10237c00230037006e0090008080e9000e0890006a
:10238c003a160700000f78001e0078000000e000ed
:10239c00030032001e007800c3200700180037002d
:1023ac000e089000204090000080fb00000f780089
:1023bc001e0078000000e000110032000e089000b2
:1023cc00204090008080fb00000420000080600012
:1023dc000000e000060032000e0890002040900043
:1023ec000080fb00800078000160a100010f7800e4
:1023fc001e007800ac200700010037000000000030
:0c240c001e0078000080fa0000000600ae
:020000040000fa
:102418000000fe0002c021000019780001097800c0
:10242800000006000000fe000000eb008000eb004a
:10243800f8ff0700d628ef00000006000000fe00a5
:102448000000fe00801f7800811f7800821f78003e
:1024580001c0210012468000c3e8a90031007800bd
:10246800b046880011007800b0468800d1e8a8007e
:102478000000000000000000d1e8af00feff3700b8
:1024880002f0a700c3e8a8004f017800cf00780049
:102498004f007800000006000000fe00a202800045
:1024a800a10288009080ba001000ba00a202880039
:1024b800000006000000fe00a2028000a1028800c1
:1024c8001000ba00a2028800000006000000fe000a
:1024d800801f7800811f7800821f78000200780032
:1024e800830078000e120200000000004f017800ff
:1024f800cf0078004f007800f27f200000016100d3
:102508000a003a003200240082468800904688007b
:10251800a1468800261202000000000018120200de
:102528000000000010002000d1a8af00000020002b
:10253800000006000000fe00801f7800811f780060
:10254800821f780006007800870078000e120200cb
:10255800000000004f017800cf0078004f0078009d
:10256800d1e8af00f4ff37000000a70015003700de
:102578000010a70013003700a14688009046880085
:102588001000240080468800a0028000a10f2000cf
:10259800a1028800010020008208bb008398bb00cc
:1025a8008408bb008598bb002612020000000000ca
:1025b800a00288001812020000000000100020008d
:1025c800d1a8af0000002000000006000000fe00b7
:1025d800801f7800811f7800821f7800040078002f
:1025e800850078000e120200000000004f017800fc
:1025f800cf0078004f007800d1e8af00f4ff370033
:102608000000a700160037000010a70014003700cc
:10261800a146880090468800a1028000100024008e
:1026280080468800a00f2000a0028800000020003b
:102638000208bb00f20f20000298bb000308bb0091
:102648000298bb002612020000000000a1028800c8
:10265800181202000000000010002000d1a8af00ee
:1026680000002000000006000000fe00801f780027
:10267800811f7800821f7800831f7800040078008b
:10268800850078000e12020000000000cf017800db
:102698004f017800cf0078004f007800d1e8af00f4
:1026a800f2ff3700f30f2000808161000b003a0031
:1026b80090468800a14688002000240080468800b3
:1026c800c24688002612020000000000181202000c
:1026d8000000000010002000d1a8af00000020007a
:1026e800000006000000fe00801f7800811f7800af
:1026f800821f780004007800850078000e1202001e
:10270800000000004f017800cf0078004f007800eb
:10271800d1e8af00f4ff3700f30f2000808161009b
:1027280017003a0090468800a1468800100024004f
:1027380080468800a00f2000a0028800000020002a
:1027480001082000f40f20003208bb000498bb00e9
:102758003208bb000490bb002612020000000000f3
:10276800d2a8ec00d2a8ec002100b100f6ff3a0094
:10277800181202000000000010002000d1a8af00cd
:102788000000200000000600f27f20000000610029
:102798000000060002802f0000006100f2ff2f00f9
:0827a800810061000000060041
:020000040000fa
:1027b0001400fa00881f7800000f9800110f98008d
:1027c0000e0890001003be000e089000b0009000ac
:1027d0002000900006004000878048000e0b90000b
:1027e000008bbe000e0890001003be004338dd00d1
:1027f000cd30de00810070004330dd0040079800de
:10280000510798000e089000b00090002000900042
:1028100069034000e0834800f0032000010020002d
:1028200006047800070378008003780081007800b0
:1028300007006400810063008102780000027800d4
:102840000400be0004042000050020000002520025
:1028500081825a00f0032000010020000403780068
:10286000050278008002780081007800050063008e
:102870008100620081017800000178000200be0042
:1028800060079800710798000e089000b000900053
:10289000200090000e0990000001410068014100f5
:1028a00003c8b3000349780061004000e08048009d
:1028b0000e09900020019800310198006e009000f0
:1028c000640140000e089000e80140000e089000ee
:1028d000b0009000200090000000780000804100cf
:1028e0008000eb00410707000e08900020019000d7
:1028f000b00190006e009000fe00900002004000c9
:102900008380480064004000e08048000e09900089
:1029100020019800310198000e089000b00090004e
:10292000200090004e019000de0190004819de006a
:10293000824178000e0990000001410068014100c9
:102940000349780061004000e08048000e099000d3
:1029500020019800310198000e089000b00090000e
:10296000200090004e019000de0190004019de0032
:10297000824178000e099000000141006801410089
:102980000349780061004000e08048000e09900093
:1029900020019800310198000e089000b0009000ce
:1029a000200090004e019000de019000481add00ea
:1029b0004811de0002017200c819de008241780071
:1029c0000e099000000141006801410003497800b0
:1029d00061004000e08048000e099000200198004e
:1029e000310198000e089000b00090002000900087
:1029f0004e019000824178000e09900000014100d4
:102a0000680141000349780061004000e08048000f
:102a10000e09900020019800310198000e089000e6
:102a2000b0009000200090004a09dd004600de0062
:102a300000007100c608de000e0990006802410027
:102a40000001be00840078000e0890007af70700ad
:102a50006000b800008fbe00320037003000200058
:102a6000010020002007980031079800240037005b
:102a70001e007800c200dd002e00900000804000a3
:102a80009e089000008140008e08900023022000e4
:102a90001e8041004200dd00008040001000be00aa
:102aa00000407800004978002e009000be009000a1
:102ab00061005000e080580020079800310798001e
:102ac0008e089000240220001e0042004200dd001b
:102ad000008040001000be004809dd004800de0014
:102ae00000007100c808de008e099000240220005a
:102af0001e0142004211dd00028141000089be003a
:102b00002e009000be009000e00f5000e08f5800b3
:102b1000d7ff3d0012002000030020001e0f4100df
:102b20005e9749001e01be007000200001002000d9
:102b3000800f5100818f5900c8ff34004f04780086
:082b40000080fa00000006000d
:020000040000fa
:102b48001a00fa0050079800414f98007207980041
:102b5800030f9800140f9800250f9800360f98005f
:102b6800470f98000000eb00100798005e009000e7
:102b78000000e000150032001e0890000000e00090
:102b8800120032003e0890000000e00006003a0003
:102b9800fe009000008024008080600000802400f7
:102ba800808f5000090032004eb897000000e00006
:102bb8000a003a008e08900000802400808060009f
:102bc80000802400808f500004003a0020fe2f006f
:102bd800b61e0700000f780017003700ae089000f7
:102be8004e089000808040003eb89700008040006a
:102bf800eb004000b0102000808f50000400360029
:102c080040fe2f00a91e0700000f78000a003700b9
:102c1800a2130700100798001e0090000000e000b3
:102c2800020032000000eb0001003700b0ff2f0067
:102c38009e1e0700000f78001e0090000000e000b4
:102c4800880032001e00900001c1b3003140980096
:102c58001e009000ce489000414098007e009000f1
:102c68004801dd00c800de00810071001e009000f0
:102c7800f20f200002816000d0419000e0c16100a5
:102c880002c1710052409800c808de0060419000ff
:102c98006041610081407100614098000e08900019
:102ca8004801dd00c800de00810071001e009000b0
:102cb800f20f200002816000f0419000e0c1610045
:102cc80002c1710072409800c808de0000499000f7
:102cd8006041610081407100014898001e00900029
:102ce80069004000200798002e0990009e08900077
:102cf8002e009000211e0700ae0090002e089000c4
:102d08000080400020079800fe009000008024000a
:102d18008080600000802400808f500008003a0006
:102d28004e099000be0890002e009000131e070068
:102d3800ae0090004e0890000080400020079800e8
:102d48008e089000008024008080600000802400ad
:102d5800808f500008003a003eb99700ceb897001f
:102d68002e009000051e0700ae0090003eb89700a8
:102d780000804000200798001e0090006900400075
:102d8800800078002e009000d81a070030079800bd
:102d98003e0090006a0040004801dd00c800de00e7
:102da800810071001e009000f20f20000281600077
:102db80090419000e0c1610002c17100124098008a
:102dc800c808de0020419000604161008140710028
:102dd80021409800de0090001e00900006130700b6
:102de800321e0700000f78001e0078000000e00087
:102df8001a003a001e0090009080fb0010409000de
:102e08000080fb004800dd0000807000c800dd0085
:102e18004800de0000807000650050004007980000
:102e28002eb897000000e0000c0032004e00900021
:102e38000000e000090032001e00900030409000c1
:102e48000004a2000080fb000000e9004f00de0043
:102e580000407800aeb89700804878001e009000c7
:102e6800721607001e0078000080fa0000000600b5
:020000040000fa
:102e78000a00fa00889fbe008a9fbe0030079800ab
:102e8800410798000040eb00004f78003e0090009a
:102e980090007800110798003e0090000080e8003c
:102ea80090007800210798003e00900064004000e0
:102eb80010007800004078006f4060006f406000ac
:102ec8006f406000ce0090000080fb006f00600043
:102ed8004200dd00a10590003afc2f000a8565003c
:102ee8000a007000a00098003e00900064004000b6
:102ef80010007800700060004400de000040780098
:102f0800e14060004e0090008180fb00e18060009d
:102f1800200590000a00a1008a8070002100980016
:102f28003e009000640040009000780000022000fd
:102f3800008060004500de0000407800e14060004d
:102f48004e0090008180fb00e1806000818040009d
:102f5800200590000a10a1008a80700021009800c6
:102f68003e009000640040009000780000042000bb
:102f7800008060004600de0000407800e14060000c
:102f88004e0090008180fb00e1806000c708dd00f2
:102f9800200590000a70a1008a8070002100980026
:102fa8003e00900064004000900078000008200077
:102fb800008060004700de0000407800e1406000cb
:102fc8004e0090008180fb00e1806000c608dd00b3
:102fd800200590000a60a1008a80700021009800f6
:102fe8004e00900020009000610060000000e000aa
:102ff80010003a001e0090006101b800f07f200028
:1030080001002000020278000301780080017800a6
:10301800810078000300620081006100810478006b
:10302800000478000800be004e0190000089be0030
:103038002d0037001e0090006104b800f07f2000ca
:103048000100200008057800090478008004780051
:103058008100780009006500810064008103780020
:10306800000378000600be00c204dd00080020004e
:103078002e0090006103b800f0ff2100010020003d
:10308800060578000703780080037800810078003f
:103098000700650081006300810278000002780063
:1030a8004528dd00cb20de00810070004520dd00d2
:1030b80000027400818274001e0090004b00de0044
:1030c8008000eb00000078007f0060008001eb00ca
:1030d800000178000200be000000720081807200ca
:1030e8004e0190000089be004e0090002000900024
:1030f80052800a00000000000080fb00ee1c070060
:10310800004f7800820020008000eb0080bf210083
:10311800340507009e80fb003e00900068004000d8
:10312800010178008000780080bf2100131d07008e
:103138004e00900081bf2100310098004f05be006d
:0c3148004f04be000080fa0000000600ea
:020000040000fa
:103154001000fa00889fbe0000a72100000f78002d
:1031640020002000421907000080fb004800dd0019
:1031740010079800100020003d1907000080fb0094
:103184009e009000010070001007980007180700c7
:103194009e009000eb804000810f5000020031003f
:1031a400200020006d0037001e0090006b004000de
:1031b4008000780000a721002a150700640047005a
:1031c400b200200001a72100ed1c070010c0b300cd
:1031d400704f98009e009000500f2000808f500088
:1031e4002b003e001e007800b04090008180fb0060
:1031f400404290000482fb004822dd00848070007d
:1032040001017800d04090008180fb006040900074
:103214000080fb004800dd00008070008001780021
:103224009e007800eb8240001e0090006104b8000c
:103234001e027800744390000683fb00844b9000c8
:103244008783fb00c83bdd0007037300060078009a
:10325400144b90000683fb00244a90000482fb0078
:103264004822dd0004027300840078000203be00db
:10327400050278000801be00fd0507000000e0001b
:1032840005003200e0cfb300704f98000200370011
:10329400e0cfb300704f980064004700c1002000e5
:1032a400c51607001e017800b24190008381fb001f
:1032b400424290000482fb004822dd0084817100b8
:1032c40003007800d24190008381fb0062419000aa
:1032d4000281fb004811dd00028171008200780048
:1032e4000081ea008181ea001e007800f10f2000cd
:1032f40081006100304290006042620081407200af
:1033040031409800c810de004042900060426200e4
:103314008140720041409800f10f200081806100db
:103324005042900060426200814072005140980017
:10333400c818de0060419000604161008140710066
:10334400614098007e489000e14f500002003a002e
:103354000000eb0001003700300020004f04be00e5
:083364000080fa0000000600e1
:020000040000fa
:10336c006e00fa00889fbe008a9fbe008c9fbe0034
:10337c00603798006e309000e10f5000020036006c
:10338c000040eb0076003700001b8400111b84000a
:10339c000001be006e309000461707006401470024
:1033ac00e50a07002e209000be209000d51a0700d9
:1033bc000004e000020032000040eb00680037001f
:1033cc004e209000de209000ce1a07000004e00092
:1033dc00020032000040eb00610037002e2190000b
:1033ec00be219000f0ff260001002000800f51004c
:1033fc00818f590002003e000040eb00580037005e
:10340c004e219000de219000f0ff260001002000ec
:10341c00800f5100818f590002003e000040eb00ec
:10342c004f0037002e219000be219000e07f2f002e
:10343c00a1002000800f5100818f5900020036003e
:10344c000040eb00460037004e219000de2190003a
:10345c00e07f2f00a1002000800f5100818f5900c8
:10346c00020036000040eb003d0037002e2190009a
:10347c00be2190004e209000de209000800f510065
:10348c00818f5900020036000040eb0034003700f9
:10349c00001b8400111b8400e01b07000001be0010
:1034ac006e309000031707000006be00001b84005e
:1034bc00111b8400721c07000001be006e309000ce
:1034cc00fc1607000005be004e209000de20900088
:1034dc000001be006e309000f61607000004be001e
:1034ec002e209000be2090000001be006e30900097
:1034fc00f0160700c20420000e0141008c9fbe0094
:10350c000a03be00020278000801be0075f807002d
:10351c00e4875700709380008e81e80064014700b7
:10352c00c10420008e804000030278000332280082
:10353c0007160700000f78001e0078000000e0005e
:10354c0005003a002e4090000004e000020032001a
:10355c0010002000010037000000eb000040780054
:10356c004f06be004f05be004f04be000080fa009f
:04357c000000060045
:020000040000fa
:103580001200fa00889fbe0050079800610798005b
:1035900072079800030f98005e009000b000900042
:1035a000200090000204200003002000001f5100b2
:1035b000019759007e0090008e089000be0f5000c9
:1035c000ae8f5800020036001e0078000100370060
:1035d0007e009000200798005e0090006801400087
:1035e0005e009000b0009000200090000000780085
:1035f000000041002e019000ee009000e11b07004a
:103600005e00900020019000b00190007e009000cc
:103610008e0890000201400083814800f0032000e2
:1036200001002000800f5100818f59000b003e00e7
:103630005e00900020019000b00190007e0090009c
:103640008e08900002004000838048005e019000d8
:1036500020019800310198004a0037005e00900078
:103660006800400012002000030020008000780065
:103670005e00900070f407002e0090008000eb00c8
:103680007e0190008e099000000051008180590059
:1036900070079800010f98007e0090008e0890003f
:1036a0004a09dd004600de0000007100c608de00a9
:1036b0003007980041079800ee0090002e0090001f
:1036c000008040003e019000ce0190008000780014
:1036d0005e00900058f407005e0090001001be00ec
:1036e0003e009000ce00900061024000e082480061
:1036f0004628dd00ca20de00810070004620dd0083
:1037000002004000838048005e0190000089be00f6
:103710007e0190008e099000f0032000010020003f
:1037200002027800030178008001780081007800af
:1037300003006200810061008104780000047800c9
:103740000800be005e019000200198003101980041
:103750005e009000b0009000200090000001780012
:103760003e009000c600dd002e009000008040006a
:10377000ee009000808040005e00900068004000f5
:10378000801b07004f04be000080fa000000060006
:020000040000fa
:103790001000fa0040079800214f98006207980037
:1037a0007307980000ff2f00000f78002000200012
:1037b0002007980000c1b300604798007e00900089
:1037c0000000e000030032006e0090000000e00006
:1037d00003003a0020fe2f00b61b07006d003700e3
:1037e0004e0090008001eb000001eb0041c0b300ef
:1037f000411307004e009000100078004008900030
:103800000000e800100798000a0037004e00900002
:10381000e60047001300200001017800ae48900048
:10382000f7120700000f78001e0090000000e9006a
:10383000100798001e0090000000e0000300340014
:103840001e0078000000e000f0ff3a001e00780043
:103850000000e000030032001e007800951b070006
:10386000460037004e009000e400470081017800d8
:103870006e019000ae48900000130700000f780022
:103880001e0078000000e000030032001e007800f7
:10389000881b0700390037006e0090000000e80028
:1038a000104078000080fb00200798006e00900018
:1038b000104078000080fb00c800dd002e00900062
:1038c00000804000200798002e009000e30f500079
:1038d00004003600ae00900050402000808f500061
:1038e0000400360060fe2f00721b0700000f7800f6
:1038f000220037007e009000900078002e0090009b
:10390000808f500004003100d0fe2f00691b07009b
:10391000000f7800190037002e0090000080e900a9
:10392000200798006e0090008080e8004e00900014
:10393000640147008201780001017800ae489000e0
:10394000ce120700000f78001e0078000000e00093
:10395000040032001e007800561b0700000f78009c
:10396000060037002e0090000080e8002007980035
:10397000ae0090007e009000010878004e0090009c
:103980008001eb000001eb0051c0b300da12070028
:0c3990001e0078000080fa000000060015
:020000040000fa
:10399c000600fa0010079800210798000040eb0081
:1039ac00004f78002e009000200090006100600015
:1039bc000000e00008003a002e0090001000be004d
:1039cc0080007800f07f2000808060001e00900056
:1039dc0001087800190037002e0090001000be007e
:1039ec004208de0080007800f07f2000008160003b
:1039fc002e0090001000be00000078004b00dd008f
:103a0c00820070001e009000010878001e009000db
:103a1c000081e8002e0090001000be00cb09dd00f4
:103a2c004500de0000807100c508de0080007800d3
:103a3c00f0ff210000806000000978001e0090005b
:103a4c0064004000ae009000a100900052810a007a
:103a5c00010000000181fb00ae009000a10090006d
:103a6c0000810a00010000008180fb00c408dd0019
:103a7c00f080600002817000ae009000a100900008
:103a8c0011810a00010000008180fb00c508dd00e7
:103a9c0081017800010220008180610002817000a8
:103aac00ae009000a100900077810a000100000098
:103abc008180fb00c608dd00810178000104200034
:103acc008180610002817000ae009000a100900026
:103adc0066810a00010000008180fb00c708dd0040
:103aec0081017800f10f20008180610082807000dc
:103afc00010878002e009000200090006200600009
:103b0c000000e0000e003a002e0090002000900013
:103b1c0052800a00000000000080fb00651a0700bc
:103b2c00004f78001e81fb002e009000b00090002a
:103b3c001e009000680040008f1a07000700370035
:103b4c001e009000640040009e009000e480400045
:103b5c00910078000150a000010878000080fa0064
:043b6c00000006004f
:020000040000fa
:103b70000400fa001007980000ff2f00000f7800e3
:103b80001e0090000000e0006b0032001e0090005c
:103b9000640140001e0090008080e8001e0090003c
:103ba000100078001d150700c21a0700000f7800ea
:103bb0001e0078000000e00030003a001e00900077
:103bc000200090000000e0002c0032001e00900059
:103bd00020009000100078000000e0002200320079
:103be0001e00900020009000100090000000e000f7
:103bf0001d0032001e00900020009000100178008f
:103c00001e00900010007800800078001e009000d8
:103c100002000100000f78001e0078000000e000a4
:103c20000400320020fe2f00a21a0700000f7800c7
:103c3000120037001e0090002000900090009000bd
:103c40001e00900001000100000f78001e007800a7
:103c50000000e0000800320020fe2f00951a070047
:103c6000000f78000500370060ff2f00911a070051
:103c7000000f780001003700000000001e007800ef
:103c80000000e0002c003a001e00900010009000a0
:103c9000100078000000e000220032001e009000ba
:103ca00010009000100090000000e0001d003200a5
:103cb0001e00900010009000100178001e0090007f
:103cc00010007800800078001e00900002000100c3
:103cd000000f78001e0078000000e00004003200b1
:103ce00020fe2f00731a0700000f78001200370023
:103cf0001e00900010009000900090001e009000a8
:103d000001000100000f78001e0078000000e000b4
:103d10000800320020fe2f00661a0700000f78000e
:103d20000500370060ff2f00621a0700000f7800bf
:103d300001003700000000001e0078000080fa003b
:043d40000000060079
:020000040000fa
:103d44000e00fa00300798004107980052079800c7
:103d5400434f980020fe2f00000f78004e4890003b
:103d64000080fb00100798003e0090000000e00077
:103d7400650032004e0090000000e0006200320056
:103d84005e0090000000e0005f0032004e489000aa
:103d94000004e0005c0032003e009000ce00900081
:103da400010878009e00900000042000808f5000dd
:103db40008003e003e0090000080e8001e019000d4
:103dc400de009000ee1907000000eb00000f780001
:103dd400100037003e00900010007800e119070041
:103de4003e009000100078001e019000de0090005c
:103df4007f1707003e0090008080e8003e0090009e
:103e0400100078007e190700000f780000022000df
:103e1400100798001e0078000000e0003a003a0005
:103e24009e009000f0032000808f50000a003e00a6
:103e3400010420001e009000808050003e0090008d
:103e44000081e8001e00900000004100010178009c
:103e54008000eb00e40107000000eb00200798005d
:103e64001b003700be0090002e0090000080e80088
:103e74000080400090407800c0c5b30080c0680056
:103e84003e0190002e009000000041002004b0008c
:103e940001487800be0090002e0090000080e800e9
:103ea400008040009040780060c3b30080c0680088
:103eb4003e0190002e009000000041000080e800c8
:103ec400014878002e0090000000e80020079800c8
:103ed400ae009000f0032000808f5000e1ff360018
:103ee4003e009000100078009e1907003e009000ec
:103ef4008080e8003e00900010007800020420005a
:103f04003b170700000f78001e0078000080fa00bd
:043f140000000600a3
:020000040000fa
:103f18001600fa0050079800610798007207980089
:103f2800030f9800140f9800250f98000000eb006d
:103f3800000f78005e019000ee01900012079800d3
:103f4800230798001e019000ae01900000802f000a
:103f5800f1ff2f0002027800030178008001780049
:103f6800810078000300620081006100810378000d
:103f7800000378000601be001e009000ae0090000d
:103f8800800f5100818f5900290032002000200045
:103f9800000f7800260037001e019000ae01900047
:103fa80000802000010020000200400083804800bb
:103fb8000001be001e009000ae009000c113070073
:103fc8000004e000180032001e019000ae019000cd
:103fd80010002000381407003007980041079800a7
:103fe8001e099000ae0990003e009000ce0090009f
:103ff800e11007000000e00002003200200020006d
:10400800000f78001e019000ae0190000080200093
:10401800010020000200400083804800100798003b
:10402800210798000200370020002000000f7800c8
:104038001e0078000000e0000f003a007e009000ab
:104048008e0890004b09dd00c501de008301710078
:104058004b01dd005e009000ee0090000201400080
:10406800838148001e009000ae009000800f510030
:10407800818f5900c8ff3e001e0078000000e00054
:104088000f003a007e0090008e0890004b09dd007a
:10409800c501de00830171004b01dd005e00900068
:1040a800ee00900002014000838148001e0090004d
:1040b800ae009000800f5100818f5900020032003d
:1040c80020002000000f78001e0078000080fa0011
:0440d80000000600de
:020000040000fa
:1040dc000000fa00881f7800c024210011c0b30032
:1040ec0001487800c05e2100104078000080fb0081
:1040fc00ef006000c024210031009800c024210092
:10410c0030009000c800dd00c02421003100980070
:10411c00c0242100b0009000d05e21001040780037
:10412c000080fb0081007000c02421003100980049
:10413c00c0242100300090000000e0003c003a0058
:10414c00e05e2100104078008080fb00c02421003c
:10415c0031009800c024210030009000c800dd0020
:10416c00c024210031009800c0242100b000900030
:10417c00f05e2100104078000080fb008100700090
:10418c00c024210031009800c02421003000900090
:10419c00c800dd00c024210031009800c02421009b
:1041ac00b0009000005f2100104078000080fb0000
:1041bc0081007000c024210031009800c02421002f
:1041cc0030009000c800dd00c024210031009800b0
:1041dc00c0242100b0009000105f21001040780036
:1041ec000080fb0081007000c02421003100980089
:1041fc00c0242100b0009000f0ff2000808f500000
:10420c0003003e00c02421008040eb0001487800f0
:10421c004ad2bf00e6405000c02421001140980053
:10422c00c0242100215f21001100980007003700f5
:10423c004ad2bf0080c0e900c02421001140980080
:10424c00c0242100e15e2100110098004ad2bf0079
:10425c00e74f500003003e00c02421008040eb00db
:10426c0001487800c0242100300490001b1907007d
:10427c000080fb00800f540003003100c02421009b
:10428c008040eb00014878004f0478000080fa0071
:04429c000000060018
:020000040000fa
:1042a0000e00fa00881f780000a72100000f780098
:1042b000b100200000a72100eb1007000e80e800ed
:1042c000b200200001a72100ae180700e0cfb30024
:1042d000504f98001e007800b04090008180fb0095
:1042e000404290000482fb004822dd008480700080
:1042f00001017800d04090008180fb006040900078
:104300000080fb004800dd00008070008001780024
:104310001e007800904090008180fb0020409000bb
:104320000080fb004800dd00008070006103b800e1
:104330001e027800f44290008582fb00044c90003d
:104340000884fb004844dd00888272000500780084
:10435000944a90008582fb00244a90000482fb006e
:104360004822dd0004827200840078000202be0050
:104370000601be00e8fe07000000e00002003a006f
:1043800010c0b300504f98000e80e800c10020001c
:104390008a1207001e017800b24190008381fb0061
:1043a000424290000482fb004822dd0084817100bb
:1043b00003007800d24190008381fb0062419000ad
:1043c0000281fb004811dd0002817100820078004b
:1043d0000081ea008181ea001e007800f10f2000d0
:1043e00081006100304290006042620081407200b2
:1043f00031409800c810de004042900060426200e8
:104400008140720041409800f10f200081806100de
:10441000504290006042620081407200514098001a
:10442000c818de0060419000604161008140710069
:10443000614098005e489000e14f500002003a0051
:104440000000eb0001003700300020004f0478002e
:084450000080fa0000000600e4
:020000040000fa
:104458000c00fa000040eb00304798000040eb00e9
:10446800004f78000040eb00104798000040eb0038
:10447800204798000040eb00004f780053003700b9
:104488001e80fb00c200dd00c02821000080400023
:1044980010007800304798006800470080007800d6
:1044a8003e409000020d07003e4090000080fb0057
:1044b8005b150700404798004e4090000080fb00c5
:1044c80061006000004078000004e0003e00320017
:1044d8004e4090000080fb00680060000000e00093
:1044e800030032009e4890001147980032003700c0
:1044f8003e4090000080fb00081407003007980039
:104508001e80fb004200dd008080e800c0282100fa
:1045180000804000104078008080fb003e00900042
:10452800808f50000d0036009e4890003e0090009d
:104538000040780080c040001e80fb004200dd0083
:104548000081e800c02821000000410010407800e8
:1045580000c0500010479800170037001e80fb006d
:104568004200dd008080e800c02821000080400073
:10457800104078008080fb003e009000808f500043
:104588000b0031003e009000804078001e80fb0048
:104598004200dd000081e800c02821000000410041
:1045a8001040780000c05000104798000200370003
:1045b8009e48900011479800ae4090001e40900021
:1045c80000c04000204798001e4fe8001e407800b9
:1045d8000004e000aaff32002e4090000080fa009c
:0445e80000000600c9
:020000040000fa
:1045ec00889fbe008a9fbe00800478000200e00015
:1045fc005b00320001407800814c780082814400dd
:10460c00f1f99f00e20f51005500360091449800db
:10461c00a1449800e1f99f00d1f99f00e60f5100e9
:10462c004f003600b1449800c1f99f00e80f5100cb
:10463c004b0036000905ea00630565000a84440056
:10464c000a055100c1ff2f00010565000080fb0029
:10465c008000eb001210200013102000fd17070043
:10466c00008cbe000a01440060b99f0071b99f0024
:10467c00e80f55003a0036002004980031049800e9
:10468c00400498005104980020b99f0031b99f0054
:10469c0040b99f0051b99f00f80f5500300036000b
:1046ac006004980071049800000c9800110c98009c
:1046bc00200c9800310c9800400c9800510c98007c
:1046cc0020b19f0031b19f0040b19f0051b19f00bc
:1046dc0060b19f0071b19f0000b99f0011b99f009c
:1046ec006401640078014100020444000205550095
:1046fc006011b8000203be000002be000403be003d
:10470c006022b80000007200818072000201730008
:10471c008381730010003700009cbe000294be0021
:10472c0040049800510498006204980073049800a7
:10473c00000c9800110c9800220c9800330c980077
:10474c00400c9800510c9800620c9800730c980067
:10475c000a02b1000802b000ff0f5500eeff3e0048
:10476c00090078004f05be004f04be000000060093
:020000040000fa
:10477c000401fa0000a72100000f7800b10020000e
:10478c0000a72100b50f070064004700b20020000d
:10479c0001a72100781707001e00780090409000b8
:1047ac008180fb00204090000080fb004800dd0071
:1047bc000080700080007800400f2000808f500037
:1047cc002e003e001e017800f24190008381fb0018
:1047dc00024a90000482fb004822dd0084817100b3
:1047ec0003007800924990008381fb0022499000dd
:1047fc000281fb004811dd0002817100820078000b
:10480c001e017800924190008381fb0022419000b0
:10481c000281fb004811dd00028171008001eb0078
:10482c00640247006c0342000002be0006007800e0
:10483c0099020700100798001e0090000000e0008d
:10484c0003003a0010c0b300704f980015003700f9
:10485c00e0cfb300704f9800ae009000f00f200036
:10486c000080600020079800be00900000f02f0030
:10487c0000806000300798000a003700e0cfb300da
:10488c00704f9800ae009000f00f20000080600088
:10489c0020079800be00900000f02f000080600000
:1048ac00300798002e0090004800de003e0190007a
:1048bc00f10f200081006100c808dd0001007000cc
:1048cc00ec00400064004700391107007e4890005e
:1048dc00e14f500002003a000000eb0001003700ed
:0c48ec00300020000080fa0000000600f0
:020000040000fa
:1048f8008812000004000000800000006c1800000e
:104908000402000080000000901200000200000075
:1049180080000000701a0000000100008000000004
:1049280092120000020000008000000094120000b3
:104938000200000082000000010000007812000060
:104948000800000080000000001000004a0200007b
:1049580080000000be150000ae02000080000000cc
:104968004a1200001600000080000000f81b00003a
:104978000800000080000000701b000020000000fc
:1049880080000000601200000e000000800000009f
:104998008c120000040000008200000001000000ea
:1049a80000000000cc1b00001a000000800000007e
:1049b8006e1200000a00000080000000b01b00001a
:1049c8001c0000008200000003001000000000002e
:1049d80000000000000000000000000000000000cf
:1049e800000000000018060014000000000000008d
:1049f800001c00000400000082000000ffffff0010
:104a0800ff000000901b0000200000008000000054
:104a1800961200000200000082000000ffff000064
:104a280080120000080000008000000098120000ba
:104a380002000000800000009a1200002403000019
:104a480080000000e61b0000120000008200000049
:104a5800684e500053ba4700e243800041e85200d4
:0c4a68000300e6001b000000000000003e
:020000040000fa
:104a74002000fa00889fbe00100f9800210f9800b4
:104a8400320f9800430f9800540f9800660f980057
:104a9400770f98006000b800008fbe000000eb00a4
:104aa400200798003e089000ce089000000078008f
:104ab400670060008004eb00000478000800be007a
:104ac400e00f5000e08f58003e003a003e0890008e
:104ad400ce0890008101d1000081d3001e0890000f
:104ae400ae08900002004000838048000001be0030
:104af4001e089000ae089000f31007000004e000c8
:104b04002d0032006000b800008fbe002300370083
:104b14001e00be008101d1000081d3001e08900058
:104b2400ae08900002004000838048000001be00ef
:104b34001000200061110700300798004107980019
:104b44001e007800de089000808040006a00470064
:104b5400820020008a1607006a0047006e0a90004f
:104b6400fe0a9000000178003e009000ce00900004
:104b7400fb0a07000000e0000400320030002000bf
:104b84002007980000000000100037008200200079
:104b9400030020001e0f41005e9749003e0890006c
:104ba400ce0890001e01be00800f5100818f590075
:104bb400d7ff3900050037002000200020079800a7
:104bc4000200370010002000200798002e009000fb
:0c4bd4004f04be000080fa000000060044
:020000040000fa
:104be0000400fa006000b800008fbe003bfd070023
:104bf000c0242100104078000004e0004f00320083
:104c000011160700405d2100104078000004e0000c
:104c10000b003200405d21008040eb00014878002d
:104c2000505d210090407800f05c21000148780040
:104c3000605d210090407800e05c21000148780030
:104c4000a124210091407800c05c21000148780037
:104c5000c0242100300090008000eb0040ae8800ae
:104c600051ae8800c0242100300090008000eb008d
:104c7000008fbe0010002000f0ad88000e0178000b
:104c80008000eb000000eb00a213070042ae8000a2
:104c900053ae800020ae80008000eb00800f5100fa
:104ca000818f59000900360020c0b300601507004d
:104cb0000e0178008000eb00100020009513070023
:104cc0000000eb00f0ad88001c003700005c210004
:104cd000104078000080fb0000f0a7000000ea0010
:104ce0000000ea004f00de0080407800005c2100f8
:104cf00001487800d05c210011c0b3000148780061
:104d0000305d21008040eb00014878000000eb009e
:104d100030ae8800bd110700005c21001040780013
:104d20000004e0000300320010c0b300401507008b
:104d3000020037000040eb003d1507000080fa003c
:044d40000000060069
:020000040000fa
:104d4400a1028800800478000000eb001f003700f7
:104d5400e284440054a0b4009905ba00e2844400fb
:104d640054a0b4009906ba00e284440054a0b400ec
:104d74000006eb00476fde00fd07b200ae018800bd
:104d8400636ce10003003a000ad801000000eb0064
:104d94000e003700606ce10008003a00004deb00a3
:104da4000a05e800020039003420ec000af0a000f3
:104db4008b05e900f9ff3e00040037006168e1005b
:104dc400010032000086eb000b00070019c7ba008f
:104dd4001905ba000e04e00003003a000a00e000de
:104de400dbff3a0000000600fe07b200ae028800b6
:104df4008a047800f5ff37000cd0a300e20f4d00c1
:104e04001c003b0089027800354dba000a05e80011
:104e1400020039003420ec000af0a0008b05e90000
:104e24000f003200254dba000a05e80002003900df
:104e34003420ec000af0a0008b05e90008003200e1
:104e44000c00e0000600320015cdba000a05e800a7
:104e5400020039003420ec000af0a0008b05e900c0
:104e64008984e80054a0b4000b00e000e2ff3a009b
:104e7400000006009902ba00055d78008b05e90080
:104e8400f7ff3200c82ade00055d78008b05e900d3
:104e9400f3ff32000c00e000f1ff320019ddba002c
:044ea400eeff3700e6
:020000040000fa
:104ea8000000fa00062eef00222eef003e2eef0043
:104eb8005a2eef0000202400b0738800922eef00d5
:104ec800f01b2000107088000080eb00f070880054
:104ed800f07f2700d0718800f0ff2700b0728800ab
:104ee800f0db2b00907388000080eb007074880062
:104ef8000a2eef00262eef00422eef005e2eef0066
:104f08007a2eef00962eef000c2eef00282eef00e1
:104f1800442eef00602eef007c2eef00982eef005d
:104f2800082eef00242eef00402eef005c2eef003d
:104f3800782eef00942eef00f0012000007088001a
:104f4800e0392000e0708800f00c2000c071880073
:104f580000c02000a0728800f00020008073880044
:104f6800003c2000607488000000eb005105200020
:104f7800b1468800a10a2000b14688000068880070
:104f880050c3b3002cedb700e0c3b30038edb70051
:104f9800d16c8000f00f2800808060000050200055
:104fa80001007000d06c8800f16c8000f00f2800c0
:104fb800808060000050210001007000f06c8800c3
:104fc80000c6b3002dedb700016e800000f82f0079
:104fd800008060006000b300006e88000080200040
:104fe80051052000b1468800a10a2000b14688007a
:0c4ff800006888000080fa00000006003d
:020000040000fa
:105004000e00fa0030079800014f9800124f9800e4
:10501400530798006407980020fe2f00000f7800c3
:105024006e0090000000e000470032005e00900037
:105034000000e000440032003e00900010007800c0
:10504400400890000000e00004003d003e00900095
:10505400100078008000eb00410898003e009000aa
:105064001000780040089000cf80de00610040000e
:10507400e080480010079800210798003e00900047
:105084003b0d07000004e000070032009e4890003a
:105094003e009000ee0190005e019000f60c0700c7
:1050a400000f78001a0037003e0090008001eb00ea
:1050b4000001eb0041c0b3000e0d07003e0090005c
:1050c400e900470013002000010178008e48900099
:1050d400ca0c0700000f78001e0078000000e000f2
:1050e40006003a003e009000ee0190005e01900040
:1050f4008e489000e00c0700000f78003e009000fe
:105104008001eb000001eb0051c0b300f90c070073
:105114001e009000ae00900061005000e080580036
:1051240010079800210798001e009000ae00900020
:10513400e00f5000e08f5800030032001e0078009a
:105144000000e000cdff3a001e0078000080fa0065
:045154000000060051
:020000040000fa
:105158000a00fa00400798000040eb00104798004a
:105168000040eb00004f7800440037001e80fb0031
:10517800c200dd00c0282100008040001000780037
:105188002047980064004700800078002e40900077
:10519800c70907002e4090000080fb00201207007e
:1051a800304798003e4090000080fb00610060009e
:1051b800004078000004e0002f0032003e0090001c
:1051c800100078000000e000300032003e0090003f
:1051d80010007800ce00900025f707002e409000c0
:1051e8006a1307001e80fb00c200dd000181e80091
:1051f800c128210081004100914078008140e800e9
:105208004201dd00e028210000004100014878004b
:105218001e80fb004200dd008080e800c0282100dd
:1052280000804000904078005e40900080cf5000a1
:10523800060039001e80fb00c200dd00e0282100c6
:10524800008040008040eb00014878003e4090001c
:105258000080fb00680060000000e00003003200ee
:105268002e4090000080fb003d13070010c0b300e3
:1052780010479800060037001e4fe8001e407800cf
:105288000004e000b9ff3200010037000000000010
:0c5298001e4090000080fa00000006009c
:020000040000fa
:1052a4001800fa0070079800020f9800130f980076
:1052b400240f9800350f98000000eb002007980099
:1052c4000e0890009e0890000000780063006000c3
:1052d4008003eb00000378000600be00e00f5000de
:1052e400e08f580037003a000e0890009e089000a6
:1052f4008101d1000081d3002e089000be089000e7
:1053040002004000838048000001be002e08900087
:10531400be089000ec0e07000004e00026003200f6
:105324006000b800008fbe001c0037001e00be00e5
:105334008101d1000081d3002e089000be089000a6
:1053440002004000838048000001be0010002000dd
:105354005a0f070030079800410798006a00470079
:1053640080017800120020003e009000ce009000e2
